:400000000080002011000000711800007118000080B500AF024A034B1B68136001F032FCBC760040FA46004010B5054C237833B9044B13B10448AFF300800123237010BDD6
:400040006881FF1F0000000078220000084B10B51BB108490848AFF300800848036803B910BD074B002BFBD0BDE81040184700BF000000006C81FF1F78220000C880FF1F8E
:400080000000000080B582B000AF0023FB8062B6164B174A1A60154B164A5A60134B164A9A60124B154ADA60104B40221A61144B1B681946134800F027F80346FB80FB88E6
:4000C000002BF4D0012001F071FC012001F092FF012001F0ADFFFB8803F40053002BE6D14FF47A6002F002F8E1E700BF9481FF1FB1020000C102000021030000D102000052
:40010000F080FF1FCC80FF1F80B5D6B004AF3B1D18603B4619600023A7F846310023C7F830310023C7F84031D7F840319B003A1D126813441B68184602F095F8C7F83C0161
:40014000D7F840319B003A1D12681344196807F10B0007F10C0207F10A0300930346D7F83C0101F0D3F80346A7F8463107F10A031B78184600F0D0FCB7F84631002B40F0B7
:400180008D8007F10C03196807F10B031A7807F59873464800F0D2F90346A7F84631D7F840310133C7F840316CE0D7F840319B003A1D126813441B68184602F054F8C7F892
:4001C0003C01D7F840319B003A1D12681344196807F59C7007F59D7207F23513029307F59B73019307F1100300930346D7F83C0101F0F0F80346A7F84631B7F84631002B3B
:400200003BD197F83A01B7F83811B7F8363107F1100200F093FA0346A7F84631B7F84631002B2AD197F8352197F83A311344DAB2B7F83831DBB21344DAB2B7F838311B0A21
:400240009BB2DBB21344DAB2B7F83631DBB21344DAB2B7F836311B0A9BB2DBB2134487F83B3197F83A31B7F8381197F83B21184600F05EFB0346A7F84631D7F8403101338D
:40028000C7F84031B7F84631002B05D13B46D7F840211B689A4288D300F012FAB7F84631184607F5A477BD4680BD00BF9481FF1F80B500AF01F098FB0023184680BD00BFCE
:4002C00080B500AF01F014FC0023184680BD00BF80B584B000AF786039600123FB8101F0E3FC01F0ABFD3B68DBB21946786801F083FD08E0FB890133FB81FB89002B02D18C
:400300004FF4005307E001F00FFD034603F00103002BEFD0002318461037BD4680BD00BF90B585B000AF786039600123FB8100237B7301F0B9FC01F081FD08E0FB89013352
:40034000FB81FB89002B02D14FF400531BE001F063FC0346002BF1D011E001F05DFC0346002B0CD07B7B7A68D41801F0F9FB034623707B7B01337B733B68013B3B603B6824
:40038000002BEADC002318461437BD4690BD00BF80B586B000AFF860B9607A603B600E4B1B68DB68B968F868984778617B69002B06D1094B1B689B68396878689847786120
:4003C0007B69002B03D07B6943F400537B617B6918461837BD4680BD8481FF1F90B5ADF22C4D02AF0246FB1D1A703B1D0A461A800023A7F812340023A7F8103407F10F038B
:4004000000221A700023C7F81C34FB1D1B783F2B00F28780FB1D1B78474A52F82330002B5AD107F2144407F5836207F50471FB1D1878234600F0DEFDC7F81C04D7F81C3424
:40044000002B0CD1D7F818341946D7F8143407F1100207F50470FFF79BFFC7F81C04D7F81C34002B0FD1D7F8141407F5826407F2124207F1100007F10F030093234600F0AC
:4004800003FEC7F81C0407F10F031B78002B06D007F10F031B7843F48043C7F81C34D7F81C34002B18D107F10F031B78002B0CD1FB1D1B78B7F812241204B7F810140A4479
:4004C00011461D4A42F8231006E007F10F031B7843F48043C7F81C34D7F81C34002B23D1FB1D1B78144A52F823301B0C9BB2A7F81234FB1D1B78104A52F823309BB2A7F87A
:400500001034B7F812343A1D12889A4205D3B7F810343A1D12889A4206D90A23C7F81C3402E00923C7F81C34D7F81C34184607F22447BD4690BD00BFA881FF1F90B5ADF2CA
:400540003C4D02AF07F10C04206007F10800016011463A461360FB1D0A461A704FF48033C7F824344FF47F03C7F820340023C7F81C340023C7F818340023C7F8143407F1B5
:40058000130300221A7007F1120300221A704A4A07F10C031B6813600023C7F82C340AE0464AD7F82C34002142F82310D7F82C340133C7F82C34D7F82C343F2BF0D93E4B49
:4005C0001B681B689847C7F82804D7F82834002B05D0D7F8283443F40053C7F82834D7F82834002B0AD107F5836207F21C4107F50573184600F0DEFAC7F82804D7F8283418
:40060000002B0CD1D7F81C341946D7F8183407F1140207F50570FFF7BBFEC7F82804D7F82834002B12D1D7F8181407F1130407F2144207F1140007F1120301933B461B68BD
:400640000093234600F0F0FAC7F82804D7F82834002B2AD107F112031B78002B06D007F112031B7843F48043C7F82834D7F8143407F1080212689A4206D107F113031B782B
:40068000FA1D12789A4203D00623C7F828340CE03B461B681A68D7F820341A40D7F824349A4202D00723C7F82834D7F82834184607F23447BD4690BD8481FF1FA881FF1FE6
:4006C00080B5ADF5047D00AF07F5017207F502713B1D184600F01CFBC7F80C02D7F80C32002B1ED1144B1B68DB68D7F8082211463A1D10469847C7F80C02D7F80C32002B5E
:4007000005D10D4B1B685B689847C7F80C02D7F80C32002B05D0D7F80C3243F40053C7F80C32054B00221A60D7F80C32184607F50477BD4680BD00BF8481FF1F90B5ADF224
:40074000444D04AF0446084607F108010A60194607F10F0322461A7007F10C0302461A80BB1D0A461A800B23C7F824340023C7F82C3407F1170300221A700023C7F82834A9
:4007800007F10F031B783F2B60D807F10C031A8807F10F031B7811461846FFF71FFEC7F8280453E0614B1B681B699AB2D7F824349BB2D31AA7F8223407F108031A68D7F825
:4007C0002C34D01807F11C0407F50872B7F8221407F118030093234600F0BEFCC7F82804D7F82834002B0ED107F11C031B68194607F118031B6807F1200207F50870FFF752
:40080000C7FDC7F82804D7F82834002B0BD107F11803196807F1170207F12003184600F0F9FCC7F8280407F117031B78002B06D007F117031B7843F48043C7F82834B7F8DA
:400840002234D7F82C241344C7F82C34D7F82834002B0CD1BB1D1A88D7F82C34D21AD7F824341A44314B1B681B699A429AD8D7F82834002B52D1D7F82C349BB2BA1D128809
:40088000D31AA7F8223407F108031A68D7F82C341A44B7F8224407F10C03198807F10F03187807F11803029307F11C03019307F508730093234600F06FFAC7F82804D7F814
:4008C0002834002B0ED107F11C031B68194607F118031B6807F1200207F50870FFF758FDC7F82804D7F82834002B0BD107F11803196807F1170207F12003184600F0C4FA41
:40090000C7F8280407F117031B78002B06D007F117031B7843F48043C7F82834D7F82834184607F23447BD4690BD00BF8481FF1F90B5ADF2244D02AF044608461146FB1D30
:4009400022461A703B1D02461A80BB1D0A461A7007F1100300221A6007F10C0300221A6007F10B0300221A7007F10A0300221A700023C7F81434FB1D1B783F2B09D83B1D74
:400980001A88FB1D1B7811461846FFF727FDC7F81404D7F81434002B0FD107F1100407F505723B1D1988FB1D187807F10C030093234600F079FAC7F81404D7F81434002B83
:4009C0000ED107F110031B68194607F10C031B6807F1140207F50570FFF7DAFCC7F81404D7F81434002B0CD107F10C03196807F10A0307F10B0207F1140000F0ABFAC7F86E
:400A0000140407F10A031B78002B06D007F10A031B7843F48043C7F81434D7F81434002B09D107F10B031B78BA1D12789A4202D00823C7F81434D7F81434184607F21C47A5
:400A4000BD4690BD80B487B000AF78603960304B1B78012B43D14FF6FF73FB823B68002B03D1FB8ADB439BB24CE000233B617B685A1C7A601B78BB8217E0FA8ABB8A534046
:400A80009BB203F00103002B06D0FB8A5B089AB2204B5340FB8202E0FB8A5B08FB823B6901333B61BB8A5B08BB823B69072BE4DD3B68013B3B603B68002BD6D1FB8ADB4379
:400AC000FB82FB8ABB82FB8A1B021AB2BB8A1B0A9BB21BB213431BB2FB82FB8A12E00023FB8107E07B685A1C7A601B789AB2FB891344FB813B685A1E3A60002BF2D1FB8998
:400B00005B429BB218461C37BD4680BC704700BF8881FF1F0884FFFF80B483B000AF0346FB71044AFB79137000BF0C37BD4680BC704700BF8881FF1F80B487B000AFF86054
:400B4000B9607A6000237B61BB68072B02D003237B6128E0FB6801331B78002B09D0FB685A787B681A707B681B7843F480437B6119E0FB681B78012B0ED1FB6802331B7811
:400B8000002B09D1FB6803331B78002B04D1FB6806331B78172B02D004237B6103E0FB685A787B681A707B6918461C37BD4680BC704700BF80B586B000AFF860B9607A608A
:400BC00008237B617B69DA1D7B681A60BB6807221A60FB6801221A70FB68013338221A70FB68023300221A70FB68033300221A700421F868FFF726FF03467B82FB6804335C
:400C00007A8AD2B21A70FB6805337A8A120A92B2D2B21A70FB68063317221A70002318461837BD4680BD00BF80B489B000AFF860B9607A603B600823BB61BB6907337B61E4
:400C40000023FB61BA687B699A4202D00323FB6158E0FB6801331B78002B09D0FB685A78FB6A1A70FB6A1B7843F48043FB6149E0FB681B78012B15D1FB6802331B781A462B
:400C8000BB699A420ED1FB6803331B781A46BB691B0A9A4206D17B69013BFA6813441B78172B02D00423FB612CE0FB6807331B781A06FB6806331B781B041A43FB68053328
:400CC0001B781B021343FA680432127813431A467B681A60FB681A7A3B681A70FB680B331B781A04FB680A331B781B021343FA680932127813431A46BB6A1A60FB685A78EC
:400D0000FB6A1A70FB6918462437BD4680BC704780B588B000AFF860B9607A600123FB61FB690733BB617B6807221A60BB68BA691A60FB6801221A70FB6801333B221A703C
:400D4000FB680233FA69D2B21A70FB680333FA69120AD2B21A70FB68043300221A70BB69033B1946F868FFF76DFE0346FB82FB680533FA8AD2B21A70FB680633FA8A120A4D
:400D800092B2D2B21A70FB68073317221A70002318462037BD4680BD80B588B000AFBA601A460346FB730B46BB811346FB800323BB613B6B07221A60FA88BB691344DA1D3C
:400DC000FB6A1A60BB6A01221A70BB6A013339221A70BB6A0233FA88D1B2BA69D2B20A44D2B21A70BB6A0333F988BA690A44120AD2B21A70BB6A0433FA7B1A70BB6A053373
:400E0000BA89D2B21A70BB6A0633BA89120A92B2D2B21A700023FB610BE0FB690733BA6A1344B968FA690A4412781A70FB690133FB61FA88FB699A42EFD8FB6A1B68033B46
:400E40001946B86AFFF7FEFD03467B61FB6A1B68033BBA6A13447A69D2B21A70FB6A1B68023BBA6A13447A69120AD2B21A70FB6A1B68013BBA6A134417221A7000231846B9
:400E80002037BD4680BD00BF80B584B000AFF860B9607A607A68B968F868FFF74DFE034618461037BD4680BD80B588B000AFBA607B600346FB730B46BB810123FB610323AC
:400EC000BB61BB6907337B61FB69DA1DBB6A1A607B687A691A60BB6801221A70BB6801333A221A70BB680233BA69D2B21A70BB680333BA69120AD2B21A70BB680433FA7B57
:400F00001A70BB680533BA89D2B21A70BB680633BA89120A92B2D2B21A707B69033B1946B868FFF78FFD03467B82BB6807337A8AD2B21A70BB6808337A8A120A92B2D2B250
:400F40001A70BB68093317221A70002318462037BD4680BD80B489B000AFF860B9607A603B600123BB61BB6907337B610023FB61BA687B699A4202D00323FB6133E0FB6806
:400F800001331B78002B09D0FB685A783B681A703B681B7843F48043FB6124E0FB681B78012B15D1FB6802331B781A46BB699A420ED1FB6803331B781A46BB691B0A9A4251
:400FC00006D17B69013BFA6813441B78172B02D00423FB6107E0FB681A797B681A70FB685A783B681A70FB6918462437BD4680BC704700BF80B588B000AFB9607A603B60EF
:401000000346FB730423FB610123BB61BB6907337B61FB69DA1D3B681A607B687A691A60BB6801221A70BB68013332221A70BB680233BA69D2B21A70BB680333BA69120A1E
:40104000D2B21A70BB680433FA7B1A707B69033B1946B868FFF7F6FC03467B82BB6805337A8AD2B21A70BB6806337A8A120A92B2D2B21A70BB68073317221A70002318465E
:401080002037BD4680BD00BF80B489B000AFF860B9607A603B600423BB61BB6907337B610023FB61BA687B699A4202D00323FB614BE0FB6801331B78002B09D0FB685A7818
:4010C000BB6A1A70BB6A1B7843F48043FB613CE0FB681B78012B15D1FB6802331B781A46BB699A420ED1FB6803331B781A46BB691B0A9A4206D17B69013BFA6813441B78B1
:40110000172B02D00423FB611FE0FB6805331B781B021AB2FB6804331B781BB213431BB29AB27B681A80FB6807331B781B021AB2FB6806331B781BB213431BB29AB23B68F5
:401140001A80FB685A78BB6A1A70FB6918462437BD4680BC704700BF80B586B000AFF8607A603B600B467B813B6A07221A607B8907331A463B681A607B6801221A707B6875
:40118000013337221A707B6802337A89D2B21A707B6803337A89120A92B2D2B21A7000237B610BE07B6904337A681344F9687A690A4412781A707B6901337B617A897B69A6
:4011C0009A42EFD83B681B68033B19467868FFF739FC03467B823B681B68033B7A6813447A8AD2B21A703B681B68023B7A6813447A8A120A92B2D2B21A703B681B68013B19
:401200007A68134417221A70002318461837BD4680BD00BF80B584B000AFF860B9607A607A68B968F868FFF787FC034618461037BD4680BD80B483B000AF0346FB71FB7937
:401240002F2B06D9FB79392B03D8FB79303BDBB214E0FB79602B06D9FB79662B03D8FB79573BDBB20AE0FB79402B06D9FB79462B03D8FB79373BDBB200E0002318460C3752
:40128000BD4680BC704700BFB0B586B000AFF860B9607A603B6000233B61FB6803F00103002B02D003233B612BE00023FB8220E0FB8A3A68D418FB8A5B001A46BB681344F9
:4012C0001B781846FFF7B6FF03461B015DB2FB8A5B000133BA6813441B781846FFF7AAFF03465BB22B435BB2DBB22370FB8A0133FB82FA8AFB685B089A42D9D37B68FA8A61
:401300001A803B6918461837BD46B0BD90B5ADF5497D00AF07F10C04206007F108000160391D0A603A4613600523C7F81833D7F818330133C7F8143307F1100307F212328C
:4013400007F1080107F10C0009680068FFF79CFFC7F81C03D7F81C33002B33D1B7F812331A46D7F814339A4205D307F110035A79D7F830331A70B7F812331A46D7F81833AD
:401380009A421CD307F110031B781A0607F110035B781B041A4307F110039B781B02134307F11002D27813431A463B1D1B681A6007F110031A793B461B681A7002E0032326
:4013C000C7F81C33D7F81C33184607F54977BD4690BD00BF90B5ADF54B7D00AF07F10C04206007F108000160391D0A603A4613600623A7F81E330523C7F818330023A7F891
:4014000016330023C7F82033B7F81E2307F10C031B689A4203D30323C7F8203374E007F108031B681B783A2B6BD107F10C031B68581E07F108031B68591C07F1140307F2B9
:401440001632FFF721FFC7F8200307F114031A783B1D1B681A7007F114035B781B021AB207F114039B781BB213431BB29AB23B461B681A8007F11403DB781B021AB207F11C
:4014800014031B791BB213431BB29AB2D7F83C331A80B7F81633013B07F11402D25CD7F840331A70D7F83C331B881A46B7F81E331344B7F8162393421FD10023C7F82433B3
:4014C00012E0D7F83823D7F824331344D7F81813D7F824230A4407F114018A5C1A70D7F824330133C7F82433D7F83C331B881A46D7F824339A42E4D806E00423C7F82033EA
:4015000002E00523C7F82033D7F82033184607F54B77BD4690BD00BF80B582B000AF786039603A680021786800F095FE00BF0837BD4680BD80B584B000AFF860B9607A60F4
:401540007A68B968F86800F07BFE00BF1037BD4680BD00BF80B584B000AFF860B9607A607A68B968F86800F06BFE00BF1037BD4680BD00BF80B483B000AF0346FB71FEE7C6
:4015800080B487B000AF7860396000233B6100237B6127E07B699B007A6813441B68BB60BB68FB73BB6823F0FF03BB6014E03B695B003A6813441B781A46BB6813441946E9
:4015C0003B695B003A6813445B780B703B6901333B61FB7B013BFB73FB7B002BE7D17B6901337B617B690D2BD4D900BF1C37BD4680BC704780B582B000AF304B19221A808D
:401600002F4B18221A702F4B02221A704FF0402308221A702C4B03221A702C4B2C4A1278D2B21A702B4B08221A802B4B41F251221A800023FB7019237B6014E0FB785B00EC
:40164000DAB2264B1B78DBB203F00103DBB21343DBB203F00303FB704FF4F07000F0B4FD7B68013B7B607B68002B02D0FB78032BE4D17B68002B02D10320FFF77BFF184B37
:401680004FF480721A80164B07221A70154B00221A70154B48221A70114B00221A70134B02221A70124A124B1B78DBB243F00103DBB2137000BF0837BD4680BD8040004075
:4016C000824000400043004000420040A14600400801004922420040204200402542004004400040064000400840004001400040A243004080B483B000AF0B4B1B78FB71DA
:401700000A4AFB7903F00703DBB21370084AFB791B09DBB21370074B44221A7000BF0C37BD4680BC704700BFCF0100496E5800406F5800407658004080B582B000AF72B66F
:40174000394A394B1B78DBB243F00403DBB213700023FB7113E0FA7913465B0013445B00324A13443B603B681A683B689B889BB219461046FFF7D0FEFB790133FB71FB79F6
:40178000072BE8D92A492B48FFF7FAFE2A4A2A4B1B78DBB243F00203DBB21370274A274B1B78DBB243F00203DBB21370244A244B1B78DBB243F04003DBB21370214A214B6C
:4017C0001B78DBB243F01003DBB213700A221E491E48FFF7BFFE08221D491E48FFF7BAFE08221D491D48FFF7B5FE1D4A1C4B1B78DBB243F00803DBB213701A4B61221A70D7
:40180000FFF7F8FE174B81221A70174B01221A70FFF770FF0E220A491448FFF78BFE00BF0837BD4680BD00BFE84600400C350000743500003C35000003500140135001405D
:40184000A0430040C2430040F83800000051004004390000125100400C39000022510040224300400048004004000840B043004080B500AF00F0B8FC03461B680C2B00D15F
:40188000FEE7FEE780B586B000AF224B7B61224B3B61204B7B6135E03B691B68FB603B695B68BB603B699B683B6000237B600CE0FB681A68BB681A60BB680433BB60FB680C
:4018C0000433FB607B6804337B607A683B689A42EED13B69DB683B6000237B6008E0BB6800221A60BB680433BB607B6804337B607A683B689A42F2D13B6910333B617B6925
:40190000013B7B617B69002BC6D100F073FCFEF7B9FBFEE7010000009C39000080B582B000AF184B184A1A60184A184B1B6843F40073136000237B600FE07B68032B04D892
:40194000134A7B6852F8233000E0124B12497A6841F822307B6801337B607B682F2BECD90E4B1B78DAB20E4B1A700E4B0A4A1A60FFF7E2FE0C4B00221A6000BF0837BD4645
:4019800080BD00BF0CED00E00004FA0514ED00E000000000711800000080FF1FBC760040C480FF1F08ED00E0C080FF1F80B485B000AF0346FB710B4B1B78DBB223F04003A7
:4019C000FB730849FB799B01DBB203F04003DAB2FB7B1343DBB20B7000BF1437BD4680BC704700BF2051004080B500AF064B1B78002B04D100F00AF8034B01221A7000F0E0
:401A00003BF800BF80BD00BF8981FF1F80B500AF1149002000F08CFB0721002000F0B0FB0E4B00221A700E4B72221A700D4B20221A700D49012000F07BFB0721012000F022
:401A40009FFB0A4B06221A70094B47221A70094B02221A7000BF80BDA91E00008C81FF1F8364004080640040851F000021640040316400408564004080B582B000AF00F0D6
:401A8000ABFB0346FB71154A144B1B78DBB243F02003DBB21370124A114B1B78DBB243F01003DBB213700F4B01221A600E4A0E4B1B78DBB243F01003DBB213700B4B0222C1
:401AC0001A60084B02221A6000F0D0FAFB79184600F086FB00BF0837BD4680BD936400409064004000E100E09564004080E200E080B582B000AF00F06FFB0346FB71144A16
:401B0000134B1B78DBB223F02003DBB2137000F0C7FA104A0F4B1B78DBB223F01003DBB213700D4B01221A600C4A0C4B1B78DBB223F01003DBB21370074B02221A60FB79CA
:401B4000184600F04DFB00BF0837BD4680BD00BF936400409064004080E100E09564004080B483B000AF0023FB71234B01221A60224B1B78BB71224B1B787B71214B1B7826
:401B8000DBB2002B03D1BA797B799A4218D0BB791D4AD35CFB71BB790133BB7197F90630002B01DA0023BB71144ABB791370154B1B78DBB2002B15D0124B00221A7011E02A
:401BC000124B1B783B713B7903F02003002B09D00F4B1B78FB713B7903F01E03002B01D00023FB710B4B01221A60FB7918460C37BD4680BC704700BF80E100E08D81FF1FA5
:401C00008E81FF1F8F81FF1FA882FF1F606400404064004000E100E080B483B000AF1D4B01221A601C4B1B78DAB21C4B1B78DBB29A420AD11A4B1B78DBB2002B02D0802354
:401C4000FB711DE00023FB711AE0134B1B78DAB2124B1B78DBB29A4208D2104B1B78DAB20D4B1B78DBB2D31AFB7109E00B4B1B78DAB2094B1B78DBB2D31ADBB2803BFB7104
:401C8000084B01221A60FB7918460C37BD4680BC704700BF80E100E08D81FF1F8E81FF1F8F81FF1F00E100E080B582B000AF00F093FA0346FB71154A144B1B78DBB243F088
:401CC0000103DBB21370114A104B1B78DBB223F00103DBB21370FB79184600F081FA0C4B01221A600B4B00221A700B4B00221A700A4B00221A700A4B00221A70094B012225
:401D00001A6000BF0837BD4680BD00BF9064004080E100E08D81FF1F8E81FF1F8F81FF1F9081FF1F00E100E080B400AF034B1B78DBB21846BD4680BC704700BF65640040D3
:401D400080B485B000AF0346FB71254B1B78FB73244B1B78BB73FA7BBB7B9A4208D2FA7BBB7B013B9A420CBF01230023DBB207E0FA7BBB7BD31A7F2B0CBF01230023DBB26A
:401D8000002BE2D1BA7BFB7B9A420AD1164B1B78DBB203F00403002B03D1144AFB79137019E097F90F30002B01DA0023FB73FB7B0F49FA79CA54FB7B0133FB73084AFB7B76
:401DC0001370094B1B78DBB203F00203002B02D0084B02221A6000BF1437BD4680BC70478B81FF1F8A81FF1F65640040456400402883FF1F00E200E080B584B000AF786046
:401E00000B46FB700023FB730B4B1B78002B0ED009E0FB7B7A6813441B781846FFF790FFFB7B0133FB73FA7BFB789A42F1D300BF1037BD4680BD00BF8981FF1F80B582B021
:401E400000AF00F0C9F90346FB71124A114B1B78DBB243F00103DBB213700E4A0D4B1B78DBB223F00103DBB21370FB79184600F0B7F9094B02221A60084B00221A70084B80
:401E800000221A70074B02221A6000BF0837BD4680BD00BF9564004080E100E08A81FF1F8B81FF1F00E100E080B483B000AF0023FB712C4B1B78BB71BB797B71BB7903F0D9
:401EC0001E03002B0CD097F9063003F01E035AB2254B1B785BB213435BB2DAB2224B1A70BB7903F02003002B31D0204B1B787B711F4B1B78DBB219461E4A7B79535401236E
:401F0000FB71FB79002B22D01B4B1B78DBB2002B02D01A4B01221A70154B1B78DBB20133DAB2134B1A70124B1B78DBB25BB2002B02DA0F4B00221A700D4B1B78DAB2104B7E
:401F40001B78DBB29A4202D10B4B01221A70BB7903F02003002BACD100BF0C37BD4680BC704700BF606400408C81FF1F406400408E81FF1FA882FF1F8F81FF1F9081FF1F01
:401F80008D81FF1F80B400AF18E0154B1B78DBB25BB2002B02DA124B00221A70114B104A1278D2B21146104A525CD2B21A700C4B1B78DBB20133DAB2094B1A70084B1B7851
:401FC000DAB20A4B1B789A4206D0094B1B78DBB203F00403002BD8D000BFBD4680BC70478A81FF1F456400402883FF1F8B81FF1F6564004080B485B000AF0346FB710B4B94
:402000001B78DBB223F02003FB730849FB795B01DBB203F02003DAB2FB7B1343DBB20B7000BF1437BD4680BC704700BF2051004080B485B000AF0346FB710B4B1B78DBB205
:4020400023F01003FB730849FB791B01DBB203F01003DAB2FB7B1343DBB20B7000BF1437BD4680BC704700BF2051004080B400AF094A094B1B78DBB243F00103DBB2137097
:40208000064A064B1B78DBB243F00103DBB2137000BFBD4680BC7047A2430040B243004080B400AF094A094B1B78DBB223F00103DBB21370064A064B1B78DBB223F0010360
:4020C000DBB2137000BFBD4680BC7047A2430040B243004080B483B000AF0346FB7101BE00BF0C37BD4680BC704700BF80B582B000AF786008E00C4B1B68184600F064F826
:402100007B68A3F500437B607B68B3F5004FF2D8064B1B687A6802FB03F3184600F054F800BF0837BD4680BD0081FF1FF880FF1F80B584B000AF03463960FB710F4B1B6869
:40214000FB60FB791F2B02D90020FFF7C3FFFB7903F01F0310339B00FA6813441B68BB60FB7903F01F0310339B00FA6813443A681A60BB6818461037BD4680BD08ED00E0BC
:4021800080B582B000AF03460A46FB711346BB71BB79072B02D90020FFF79CFFFB791F2B02D90020FFF796FFFB7903F01F0303F1604303F56443BA795201D2B21A7000BF37
:4021C0000837BD4680BD00BF0230800803D000BF01380046FCD17047EFF3108072B6704780F31088704700BF014B1868704700BF6481FF1F0E4B70B51E460E4C0025E41ADC
:40220000A410A54204D056F8253098470135F8E701F0B2FB084B094C1E46E41AA4100025A54204D056F8253098470135F8E770BD8439000084390000843900008C3900009C
:4022400010B5431E0A44914204D011F8014B03F8014FF8E710BD03460244934202D003F8011BFAE77047034613F8012B002AFBD1181A01387047000000000000324531369C
:402280003130363930303030000000003A3030303032393031323030303830303032303131323930303030313932433030303031393243303030303830423530304146301B
:4022C0003046303841463931304235303534433233373833334239303434423133423130343438414646333030383030313233323337303130424434303831464631463015
:402300003030303030303037383245303030303038344231304235314242313038343930383438414646333030383030383438303336383033423931304244303734423023
:4023400030324246424430424445383130343031383437303042463030303030303030343438314646314637383245303030304338383046463146303030303030303038A1
:402380003042353832423030304146344646344641373333423630303132303030463045374639303032333742363030354530303132303030463046464639374236383026
:4023C00031333337423630374136383342363839413432463544423030323030304630443746393342363831383436303046304631463945374537383042353832423030C6
:402400003041463738363033393630334136383030323137383638303046303531464130304246303833374244343638304244383042353834423030304146463836304297
:40244000393630374136303741363842393638463836383030463033374641303042463130333742443436383042443030424638304234383342303030414630333436462F
:402480004237314645453738304235383242303030414632453442303030333033303030303030303030303030373037303030303030303030303030313030313430313011
:4024C000303030303030303030303030303030303030303030303045420000003A3030303032413031323030334631393034333130333330343232313934363243343846A1
:4025000046463744454646324234423032323231413730344646303430323330383232314137303239344230333232314137303238344232393441313237384432423231AE
:402540004137303238344230383232314138303237344234314632353132323141383030303233464237303139323337423630313445304642373835423030444142323298
:4025800032344231423738444242323033463030313033444242323133343344424232303346303033303346423730344646344630373030304630423746393742363830F7
:4025C00031334237423630374236383030324230324430464237383033324245344431374236383030324230324431303332304646463742324646313434423446463438A2
:402600003037323141383031323442303732323141373031323442303032323141373031313442343832323141373030453442303032323141373030463442303232323148
:40264000413730303042463038333742443436383042443030424632303035303030303030343130303430303034333030343030303432303034304131343630303430303D
:40268000383031303034393232343230303430323034323030343032353432303034303034343030303430303634303030343030383430303034303031343030303430389E
:4026C0003042343833423030304146304234423142373846423731304134414642373930334630303730333030303030303030303030303030303030303030303030303085
:4027000030303030303030303030303030303030303030303030303030303030303030303030303030303037440000003A30303030324230313230444242323133373030A8
:402740003834414642373931423039444242323133373030373442343432323141373030304246304333374244343638304243373034373030424643463031303034393648
:40278000453538303034303646353830303430373635383030343038304235383242303030414637324236303032334642373131334530464137393133343635423030317A
:4027C00033343435423030323834413133343433423630334236383141363833423638394238383942423231393436313034364646463732384646464237393031333346BE
:402800004237314642373930383242453844393230344132303442314237384442423234334630303230334442423231333730314434413144344231423738444242323449
:40284000334630303230334442423231333730314134423033463139303433303832323139343631393438464646373138464631363442303346313930343330383333309A
:402880003832323139343631353438464646373046464631353441313434423142373844424232343346303038303344424232313337303132344236313232314137304609
:4028C0004646373138464630463442383132323141373030463442303132323141373046464637384146463045323230443439304434384646463746354645303042463035
:40290000383337424434363830424430304246374332453030303030333530303134303133353030313430323030353030303031323531303034303030303030303030309F
:402940003030303030303030303030303030303030303030303030303030303030303030303030303030303030303030303030303030303030303046420000003A303030B5
:402980003032433031323032323531303034303232343330303430303034383030343030343030303834304130343330303430423034333030343038304235303041463043
:4029C000304630454346383033343631423638304332423030443146454537464545373830423538364230303041463232344237423631323234423342363132303442378E
:402A0000423631333545303342363931423638464236303342363935423638424236303342363939423638334236303030323337423630304345304642363831413638425E
:402A4000423638314136304242363830343333424236304642363830343333464236303742363830343333374236303741363833423638394134324545443133423639441A
:402A80004236383342363030303233374236303038453042423638303032323141363042423638303433334242363037423638303433333742363037413638334236383944
:402AC0004134324632443133423639313033333342363137423639303133423742363137423639303032424336443130304630413746384646463735444645464545373063
:402B00003130303030303044383245303030303830423538324230303041463138344231383441314136303138344131383442314236383433463430303733313336303017
:402B400030323337423630304645303742363830333242303444383133344137423638353246383233333030304530313234423132343937413638343146383232333037A6
:402B800042363830313333303030303030303030303030303030303030303030303030303030303030303030303030303030303030303030303030303030303030303030EE
:402BC0003030303030303041460000003A3030303032443031323037423630374236383246324245434439304534423142373844414232304534423141373030453442306F
:402C00004134413141363046464637304146463043344230303232314136303030424630383337424434363830424430304246304345443030453030303034464130353149
:402C40003445443030453030303239303030303139324330303030303038304646314642433736303034304334383046463146303845443030453043303830464631463859
:402C800030423438354230303041463033343646423731304234423142373844424232323346303130303346423733303834394642373931423031444242323033463031F1
:402CC00030303344414232464237423133343344424232304237303030424631343337424434363830424337303437303042463230353130303430383042353832423030E4
:402D00003041463738363030384530304334423142363831383436303046303141463837423638413346353030343337423630374236384233463530303446463244383076
:402D400036344231423638374136383032464230334633313834363030463030414638303042463038333742443436383042444438383046463146443038304646314630F4
:402D800030303030303030303233303830303830334430303042463031333830303436464344313730343745464633313038303732423637303437383046333130383837A0
:402DC0003034373030424630313442313836383730343730304246303030303030303030303030303030303030303030303030303030303030303030303030303030303038
:402E0000303030303030303030303030303030303030303030303041450000003A3030303032453031323033433831464631463045344237304235314534363045344330E1
:402E4000303235453431414134313041353432303444303536463832353330393834373031333546384537303046303438463830383442303934433145343645343141416A
:402E80003431303030323541353432303444303536463832353330393834373031333546384537373042444330324530303030433032453030303043303245303030304382
:402EC0003832453030303031304235343331453041343439313432303444303131463830313442303346383031344646384537313042443033343630323434393334323040
:402F000032443030334638303131424641453737303437303030303030303030303030303035313030343031303030333035313030343034303030433035313030343031B7
:402F400030303046303531303034303130303030303030303134303030313030303134303134303030303830303430303134303030304130303443303134303030303230E0
:402F80003035303031343032303030343330304638423530304246463842433038424339453436373034373344323930303030433532433030303046384235303042464635
:402FC000384243303842433945343637303437313932393030303045383245303030304338383046463146373830303030303032303030303030303030303030303030307D
:40300000303336364530314330354430303030313830303030303030303030453032453030303030303030303030303030303030303030303030303030303030303030300A
:4030400030303030303030303030303030303030303030303030303030303030303030303030303030303046300000003A30303030324630313230303030303030303030A5
:4030800030303030303030303030303030303030303030303030303030303030303030303030303030303030303030303030304232324530303030303030303030303030E5
:4030C00030303030303030303030303030303030303030303030303030303030303030303030303030303030303030303030303030303030303030303030303030303030D0
:40310000303030303030303030303030303030303030303030303030303030303030303030303030303030303030303030303044433830464631463030303030303030301D
:40314000303030303030303030303030303030303030303030303030303030303030303030303030303030303030303030303030303030303030303030303030303030304F
:40318000303030303030303030303030303030303030303030303030303030303030303030303030303030303030303030303030303030303030303030303030303030300F
:4031C00030303030303030303030303030303030303030303030303030303030303030303030303030303030303030303030303030303030303030303030303030303030CF
:40320000303030303030303030303030303030303030303030303030303030303030303030303030303030303030303030303030303030303030303030303030303030308E
:40324000303030303030303030303030303030303030303030303030303030303030303030303030303030303030303030303030303030303030303030303030303030304E
:403280003030303030303030303030303030303030303030303030303030303030303030303030303030303030303030303030303030303030303035360000003A30333086
:4032C000304646303132303030303030303030303030303030303030303030303030303030303030303030303030303030303030303030303030303030303030303030309F
:40330000303030303030303030303030303030303030303030303030303030303030303030303030303030303030303030303030303030303030303030303030303030308D
:40334000303030303030303030303030303030303030303030303030303030303030303030303030303030303030303030303030303030303030303030303030303030304D
:40338000303030303030303030303030303030303030303030303030303030303030303030303030303030303030303030303030303030303030303030303030303030300D
:4033C00030303030303030303030303030303030303030303030303030303030303030303030303030303030303030303030303030303030303030303030303030303030CD
:40340000303030303030303030303030303030303030303030303030303030303030303030303030303030303030303030303030303030303030303030303030303030308C
:40344000303030303030303231313132393030303032383030303030303030303730303030303030303030303030303030303030303030303030303030303030303030302B
:40348000303030303030303030303030303030303030303030303030303030303030303030303030303030303030303030303030303030303030303030303030303030300C
:4034C00030303030303030303030303030303030303030303030303030303030303030303030303030303030303030303030303030303030303030303030303030303030CC
:40350000303030303030303533000000305100404000C05100401000F0510040100000000140001000140140000800400140000A004C0140000200500140200002520040D3
:40354000036400405B000140350101403E020140430301404C040140460501400507014004400140074101400542014003500140015101400180044080388372850F010457
:40358000050109020A0212011501160419041A011C011D0422022604280129042F0130043201330334023504380839083E113F104025410642034404450C460E480549FFC3
:4035C0004AFF4BFF4C624DA04EF04F41500C54185604580459045A045B045F016640670269106A306B106D106E106F128001821A87018C028E09920495039803A803A903D4
:40360000AD02B00CB103B410B603B902BE01BF01C001C740C9FFCA07CBFFCC40CD20CEF0CF05D008D804D904DA04DF01E040E1A8E240E32000100540078209280A800B122B
:403640000E4410241240152018141B011C401D50202022102740280429A02D802F0431203248360838223B0A3F04404841084740482149204C104F04524056035A0260848F
:403680006302800883018C80C092C25FC44ECA3CCC4ECE47D017D20CD601D80DE21000010110051409090B10150C171119101B0C1F0324022D1C2F02311F340236013E5062
:4036C000580459045F0180138110820C8518881F89088DC08E13900F921093E394019544980C993C9A139BC29C039D1C9FE1A008A1E7A318A404A5FFA80CAB04AC02AD8047
:40370000B01CB1C0B338B51FB60FBAA2BB20D602D711D804D904DB04DF010120020203800740088009280A80102913011504180219201A801B901E081F402120220123100D
:403740002740280129502B902D80312832423618374038283A803B013C203E023F08408042C048014A025A20680269206A04703C73018740922093049402952096C6971855
:4037800099509A039B029DA09F80A010A401A520A608C01BC20FC42FCA1FCC7FCEEFD604030205080A0C0C0C0E030F06110814011606170519081A03270128012A0E2B0397
:4037C0002D062E082F013307360F37083A803B08580459045F01820883018403860C870188038A048C0A8E04901092609501960598709C039E04A040A210A870A901AC2040
:40380000AE10AF01B070B101B20FBA08BF01C032C106C5CEC70BC813C9FFCAFFCBFFCEF0CF44D00CD401D604D804D904DA04DB04DF01E6C0EA40EB0200200180041005A4E4
:40384000064009080B040C140E440F01120915A01604170219801D0C1E601F0420122208244029A02A082D802F043012310836083A453B803E083F054404450846084D04AE
:403880004E084F0157045C425E085F206740874091A0920493049504964097089A019B029D80A012A204A401A618A704A948AB80C0F3C2F6C4D3CA3ECC47CECBD060D220FB
:4038C000D6F0D880AB21AC10AF40B002B104322036408E20CC300B0163108710A640C240D840E2108640A640AB01E640E880000108010A01000F0000800040808000800008
:4039000000000000000B0B00000000000070700000000000000000000000000000000000000000000000000000000000000000000000000000000000000000000000000091
:403940000000000000000000000000000000000000000000000000000000000000000000000000000000000000000000000000000000000043000000F8B500BFF8BC08BC20
:403980009E4670474D0000001D190000F8B500BFF8BC08BC9E46704729000000B0390000C880FF1FA00000004002000000000000000000007C2200008C220000DC240000C4
:4039C0002C2700007C290000CC2B00001C2E00006C300000BC3200000900000000366E01C05D0000180000000000E02E0000000014390000343900005439000000000000CC
:403A000000000000000000000000000074390000000000000000000000000000000000000000000000000000000000000000000000000000000000000000000000000000D9
:403A40000000000000000000000000000481FF1F000000000000000000000000000000000000000000000000000000000000000000000000000000000000000000000000A3
:403A80000000000000000000000000000000000000000000000000000000000000000000000000000000000000000000000000000000000000000000000000000000000006
:403AC00000000000000000000000000000000000000000000000000000000000000000000000000000000000000000000000000000000000000000000000000000000000C6
:403B00000000000000000000000000000000000000000000000000000000000000000000000000000000000000000000000000000000000000000000000000000000000085
:403B40000000000000000000000000000000000000000000000000000000000000000000000000000000000000000000000000000000000000000000000000000000000045
:0200000480007A
:0200000490006A
:0400000000004005B7
:0200000490105A
:04000000BC90ACAF55
:0200000490303A
:020000007C4C36
:0200000490402A
:4000000000000000000000000000000000000000000000000000000000000000000000000000000000000000000000000000000000000000000000000000000000000000C0
:400040000000000000000000000000000000000000000000000000000000000000000000000000000000000000000000000000000000000000000000000000000000000080
:400080000000000000000000000000000000000000000000000000000000000000000000000000000000000000000000000000000000000000000000000000000000000040
:4000C0000000000000000000000000000000000000000000000000000000000000000000000000000000000000000000000000000000000000000000000000000000000000
:0200000490501A
:0C00000000012E16106900012E288CB59E
:00000001FF